{"abi":[{"type":"constructor","inputs":[],"stateMutability":"nonpayable"},{"type":"function","name":"DEFAULT_ADMIN_ROLE","inputs":[],"outputs":[{"name":"","type":"bytes32","internalType":"bytes32"}],"stateMutability":"view"},{"type":"function","name":"QA_ROLE","inputs":[],"outputs":[{"name":"","type":"bytes32","internalType":"bytes32"}],"stateMutability":"view"},{"type":"function","name":"SUPPLIER_ROLE","inputs":[],"outputs":[{"name":"","type":"bytes32","internalType":"bytes32"}],"stateMutability":"view"},{"type":"function","name":"approve","inputs":[{"name":"to","type":"address","internalType":"address"},{"name":"tokenId","type":"uint256","internalType":"uint256"}],"outputs":[],"stateMutability":"nonpayable"},{"type":"function","name":"balanceOf","inputs":[{"name":"owner","type":"address","internalType":"address"}],"outputs":[{"name":"","type":"uint256","internalType":"uint256"}],"stateMutability":"view"},{"type":"function","name":"getApproved","inputs":[{"name":"tokenId","type":"uint256","internalType":"uint256"}],"outputs":[{"name":"","type":"address","internalType":"address"}],"stateMutability":"view"},{"type":"function","name":"getRoleAdmin","inputs":[{"name":"role","type":"bytes32","internalType":"bytes32"}],"outputs":[{"name":"","type":"bytes32","internalType":"bytes32"}],"stateMutability":"view"},{"type":"function","name":"grantRole","inputs":[{"name":"role","type":"bytes32","internalType":"bytes32"},{"name":"account","type":"address","internalType":"address"}],"outputs":[],"stateMutability":"nonpayable"},{"type":"function","name":"hasRole","inputs":[{"name":"role","type":"bytes32","internalType":"bytes32"},{"name":"account","type":"address","internalType":"address"}],"outputs":[{"name":"","type":"bool","internalType":"bool"}],"stateMutability":"view"},{"type":"function","name":"initialize","inputs":[{"name":"initialAdmin","type":"address","internalType":"address"}],"outputs":[],"stateMutability":"nonpayable"},{"type":"function","name":"isApprovedForAll","inputs":[{"name":"owner","type":"address","internalType":"address"},{"name":"operator","type":"address","internalType":"address"}],"outputs":[{"name":"","type":"bool","internalType":"bool"}],"stateMutability":"view"},{"type":"function","name":"isLocked","inputs":[{"name":"","type":"uint256","internalType":"uint256"}],"outputs":[{"name":"","type":"bool","internalType":"bool"}],"stateMutability":"view"},{"type":"function","name":"lockURI","inputs":[{"name":"shipmentId","type":"uint256","internalType":"uint256"}],"outputs":[],"stateMutability":"nonpayable"},{"type":"function","name":"name","inputs":[],"outputs":[{"name":"","type":"string","internalType":"string"}],"stateMutability":"view"},{"type":"function","name":"ownerOf","inputs":[{"name":"tokenId","type":"uint256","internalType":"uint256"}],"outputs":[{"name":"","type":"address","internalType":"address"}],"stateMutability":"view"},{"type":"function","name":"renounceRole","inputs":[{"name":"role","type":"bytes32","internalType":"bytes32"},{"name":"callerConfirmation","type":"address","internalType":"address"}],"outputs":[],"stateMutability":"nonpayable"},{"type":"function","name":"revokeCoA","inputs":[{"name":"shipmentId","type":"uint256","internalType":"uint256"},{"name":"reasonCode","type":"string","internalType":"string"}],"outputs":[],"stateMutability":"nonpayable"},{"type":"function","name":"revokeRole","inputs":[{"name":"role","type":"bytes32","internalType":"bytes32"},{"name":"account","type":"address","internalType":"address"}],"outputs":[],"stateMutability":"nonpayable"},{"type":"function","name":"safeTransferFrom","inputs":[{"name":"from","type":"address","internalType":"address"},{"name":"to","type":"address","internalType":"address"},{"name":"tokenId","type":"uint256","internalType":"uint256"}],"outputs":[],"stateMutability":"nonpayable"},{"type":"function","name":"safeTransferFrom","inputs":[{"name":"from","type":"address","internalType":"address"},{"name":"to","type":"address","internalType":"address"},{"name":"tokenId","type":"uint256","internalType":"uint256"},{"name":"data","type":"bytes","internalType":"bytes"}],"outputs":[],"stateMutability":"nonpayable"},{"type":"function","name":"setApprovalForAll","inputs":[{"name":"operator","type":"address","internalType":"address"},{"name":"approved","type":"bool","internalType":"bool"}],"outputs":[],"stateMutability":"nonpayable"},{"type":"function","name":"submitCoA","inputs":[{"name":"shipmentId","type":"uint256","internalType":"uint256"},{"name":"metadataURI","type":"string","internalType":"string"}],"outputs":[],"stateMutability":"nonpayable"},{"type":"function","name":"supportsInterface","inputs":[{"name":"interfaceId","type":"bytes4","internalType":"bytes4"}],"outputs":[{"name":"","type":"bool","internalType":"bool"}],"stateMutability":"view"},{"type":"function","name":"symbol","inputs":[],"outputs":[{"name":"","type":"string","internalType":"string"}],"stateMutability":"view"},{"type":"function","name":"tokenURI","inputs":[{"name":"tokenId","type":"uint256","internalType":"uint256"}],"outputs":[{"name":"","type":"string","internalType":"string"}],"stateMutability":"view"},{"type":"function","name":"totalShipments","inputs":[],"outputs":[{"name":"","type":"uint256","internalType":"uint256"}],"stateMutability":"view"},{"type":"function","name":"transferFrom","inputs":[{"name":"from","type":"address","internalType":"address"},{"name":"to","type":"address","internalType":"address"},{"name":"tokenId","type":"uint256","internalType":"uint256"}],"outputs":[],"stateMutability":"nonpayable"},{"type":"event","name":"Approval","inputs":[{"name":"owner","type":"address","indexed":true,"internalType":"address"},{"name":"approved","type":"address","indexed":true,"internalType":"address"},{"name":"tokenId","type":"uint256","indexed":true,"internalType":"uint256"}],"anonymous":false},{"type":"event","name":"ApprovalForAll","inputs":[{"name":"owner","type":"address","indexed":true,"internalType":"address"},{"name":"operator","type":"address","indexed":true,"internalType":"address"},{"name":"approved","type":"bool","indexed":false,"internalType":"bool"}],"anonymous":false},{"type":"event","name":"BatchMetadataUpdate","inputs":[{"name":"_fromTokenId","type":"uint256","indexed":false,"internalType":"uint256"},{"name":"_toTokenId","type":"uint256","indexed":false,"internalType":"uint256"}],"anonymous":false},{"type":"event","name":"CoALocked","inputs":[{"name":"shipmentId","type":"uint256","indexed":true,"internalType":"uint256"},{"name":"qaOfficer","type":"address","indexed":true,"internalType":"address"}],"anonymous":false},{"type":"event","name":"CoARevoked","inputs":[{"name":"shipmentId","type":"uint256","indexed":true,"internalType":"uint256"},{"name":"reasonCode","type":"string","indexed":false,"internalType":"string"}],"anonymous":false},{"type":"event","name":"CoASubmitted","inputs":[{"name":"supplier","type":"address","indexed":true,"internalType":"address"},{"name":"shipmentId","type":"uint256","indexed":true,"internalType":"uint256"},{"name":"metadataURI","type":"string","indexed":false,"internalType":"string"}],"anonymous":false},{"type":"event","name":"Initialized","inputs":[{"name":"version","type":"uint64","indexed":false,"internalType":"uint64"}],"anonymous":false},{"type":"event","name":"MetadataUpdate","inputs":[{"name":"_tokenId","type":"uint256","indexed":false,"internalType":"uint256"}],"anonymous":false},{"type":"event","name":"RoleAdminChanged","inputs":[{"name":"role","type":"bytes32","indexed":true,"internalType":"bytes32"},{"name":"previousAdminRole","type":"bytes32","indexed":true,"internalType":"bytes32"},{"name":"newAdminRole","type":"bytes32","indexed":true,"internalType":"bytes32"}],"anonymous":false},{"type":"event","name":"RoleGranted","inputs":[{"name":"role","type":"bytes32","indexed":true,"internalType":"bytes32"},{"name":"account","type":"address","indexed":true,"internalType":"address"},{"name":"sender","type":"address","indexed":true,"internalType":"address"}],"anonymous":false},{"type":"event","name":"RoleRevoked","inputs":[{"name":"role","type":"bytes32","indexed":true,"internalType":"bytes32"},{"name":"account","type":"address","indexed":true,"internalType":"address"},{"name":"sender","type":"address","indexed":true,"internalType":"address"}],"anonymous":false},{"type":"event","name":"Transfer","inputs":[{"name":"from","type":"address","indexed":true,"internalType":"address"},{"name":"to","type":"address","indexed":true,"internalType":"address"},{"name":"tokenId","type":"uint256","indexed":true,"internalType":"uint256"}],"anonymous":false},{"type":"error","name":"AccessControlBadConfirmation","inputs":[]},{"type":"error","name":"AccessControlUnauthorizedAccount","inputs":[{"name":"account","type":"address","internalType":"address"},{"name":"neededRole","type":"bytes32","internalType":"bytes32"}]},{"type":"error","name":"ERC721IncorrectOwner","inputs":[{"name":"sender","type":"address","internalType":"address"},{"name":"tokenId","type":"uint256","internalType":"uint256"},{"name":"owner","type":"address","internalType":"address"}]},{"type":"error","name":"ERC721InsufficientApproval","inputs":[{"name":"operator","type":"address","internalType":"address"},{"name":"tokenId","type":"uint256","internalType":"uint256"}]},{"type":"error","name":"ERC721InvalidApprover","inputs":[{"name":"approver","type":"address","internalType":"address"}]},{"type":"error","name":"ERC721InvalidOperator","inputs":[{"name":"operator","type":"address","internalType":"address"}]},{"type":"error","name":"ERC721InvalidOwner","inputs":[{"name":"owner","type":"address","internalType":"address"}]},{"type":"error","name":"ERC721InvalidReceiver","inputs":[{"name":"receiver","type":"address","internalType":"address"}]},{"type":"error","name":"ERC721InvalidSender","inputs":[{"name":"sender","type":"address","internalType":"address"}]},{"type":"error","name":"ERC721NonexistentToken","inputs":[{"name":"tokenId","type":"uint256","internalType":"uint256"}]},{"type":"error","name":"InvalidInitialization","inputs":[]},{"type":"error","name":"NotInitializing","inputs":[]}],"bytecode":{"object":"0x608060405234801561000f575f5ffd5b5061001e61002360201b60201c565b61019e565b5f61003261012160201b60201c565b9050805f0160089054906101000a900460ff161561007c576040517ff92ee8a900000000000000000000000000000000000000000000000000000000815260040160405180910390fd5b67ffffffffffffffff8016815f015f9054906101000a900467ffffffffffffffff1667ffffffffffffffff161461011e5767ffffffffffffffff815f015f6101000a81548167ffffffffffffffff021916908367ffffffffffffffff1602179055507fc7f505b2f371ae2175ee4913f4499e1f2633a7b5936321eed1cdaeb6115181d267ffffffffffffffff6040516101159190610185565b60405180910390a15b50565b5f5f61013161013a60201b60201c565b90508091505090565b5f7ff0c57e16840df040f15088dc2f81fe391c3923bec73e23a9662efc9c229c6a005f1b905090565b5f67ffffffffffffffff82169050919050565b61017f81610163565b82525050565b5f6020820190506101985f830184610176565b92915050565b61357d806101ab5f395ff3fe608060405234801561000f575f5ffd5b50600436106101a7575f3560e01c806391d14854116100f7578063b88d4fde11610095578063d547741f1161006f578063d547741f146104c7578063dafa018b146104e3578063e985e9c5146104ff578063f6aacfb11461052f576101a7565b8063b88d4fde1461045f578063c4d66de81461047b578063c87b56dd14610497576101a7565b8063a22cb465116100d1578063a22cb465146103eb578063a283c49d14610407578063a29508fc14610425578063b0525abf14610443576101a7565b806391d148541461037f57806395d89b41146103af578063a217fddf146103cd576101a7565b80632f2ff15d1161016457806352671bb11161013e57806352671bb1146102e55780636352211e1461030357806370a08231146103335780638a0ab9be14610363576101a7565b80632f2ff15d1461029157806336568abe146102ad57806342842e0e146102c9576101a7565b806301ffc9a7146101ab57806306fdde03146101db578063081812fc146101f9578063095ea7b31461022957806323b872dd14610245578063248a9ca314610261575b5f5ffd5b6101c560048036038101906101c091906126e8565b61055f565b6040516101d2919061272d565b60405180910390f35b6101e3610570565b6040516101f091906127b6565b60405180910390f35b610213600480360381019061020e9190612809565b61060d565b6040516102209190612873565b60405180910390f35b610243600480360381019061023e91906128b6565b610628565b005b61025f600480360381019061025a91906128f4565b61063e565b005b61027b60048036038101906102769190612977565b61073d565b60405161028891906129b1565b60405180910390f35b6102ab60048036038101906102a691906129ca565b610767565b005b6102c760048036038101906102c291906129ca565b610789565b005b6102e360048036038101906102de91906128f4565b610804565b005b6102ed610823565b6040516102fa91906129b1565b60405180910390f35b61031d60048036038101906103189190612809565b610847565b60405161032a9190612873565b60405180910390f35b61034d60048036038101906103489190612a08565b610858565b60405161035a9190612a42565b60405180910390f35b61037d60048036038101906103789190612abc565b61091c565b005b610399600480360381019061039491906129ca565b6109ec565b6040516103a6919061272d565b60405180910390f35b6103b7610a5d565b6040516103c491906127b6565b60405180910390f35b6103d5610afb565b6040516103e291906129b1565b60405180910390f35b61040560048036038101906104009190612b43565b610b01565b005b61040f610b17565b60405161041c9190612a42565b60405180910390f35b61042d610b1c565b60405161043a91906129b1565b60405180910390f35b61045d60048036038101906104589190612809565b610b40565b005b61047960048036038101906104749190612ca9565b610bdb565b005b61049560048036038101906104909190612a08565b610c00565b005b6104b160048036038101906104ac9190612809565b610e08565b6040516104be91906127b6565b60405180910390f35b6104e160048036038101906104dc91906129ca565b610f22565b005b6104fd60048036038101906104f89190612abc565b610f44565b005b61051960048036038101906105149190612d29565b6110c0565b604051610526919061272d565b60405180910390f35b61054960048036038101906105449190612809565b61115c565b604051610556919061272d565b60405180910390f35b5f61056982611179565b9050919050565b60605f61057b6111f2565b9050805f01805461058b90612d94565b80601f01602080910402602001604051908101604052809291908181526020018280546105b790612d94565b80156106025780601f106105d957610100808354040283529160200191610602565b820191905f5260205f20905b8154815290600101906020018083116105e557829003601f168201915b505050505091505090565b5f61061782611219565b506106218261129f565b9050919050565b61063a82826106356112e6565b6112ed565b5050565b5f73ffffffffffffffffffffffffffffffffffffffff168273ffffffffffffffffffffffffffffffffffffffff16036106ae575f6040517f64a0ae920000000000000000000000000000000000000000000000000000000081526004016106a59190612873565b60405180910390fd5b5f6106c183836106bc6112e6565b6112ff565b90508373ffffffffffffffffffffffffffffffffffffffff168173ffffffffffffffffffffffffffffffffffffffff1614610737578382826040517f64283d7b00000000000000000000000000000000000000000000000000000000815260040161072e93929190612dc4565b60405180910390fd5b50505050565b5f5f61074761151c565b9050805f015f8481526020019081526020015f2060010154915050919050565b6107708261073d565b61077981611543565b6107838383611557565b50505050565b6107916112e6565b73ffffffffffffffffffffffffffffffffffffffff168173ffffffffffffffffffffffffffffffffffffffff16146107f5576040517f6697b23200000000000000000000000000000000000000000000000000000000815260040160405180910390fd5b6107ff828261164f565b505050565b61081e83838360405180602001604052805f815250610bdb565b505050565b7fea1e5b735e1f53c084cb4c6d36a3d1c10ad47b94665f4082bd36fa22ad75ec3a81565b5f61085182611219565b9050919050565b5f5f6108626111f2565b90505f73ffffffffffffffffffffffffffffffffffffffff168373ffffffffffffffffffffffffffffffffffffffff16036108d4575f6040517f89c62b640000000000000000000000000000000000000000000000000000000081526004016108cb9190612873565b60405180910390fd5b806003015f8473ffffffffffffffffffffffffffffffffffffffff1673ffffffffffffffffffffffffffffffffffffffff1681526020019081526020015f2054915050919050565b7fea1e5b735e1f53c084cb4c6d36a3d1c10ad47b94665f4082bd36fa22ad75ec3a61094681611543565b60025f8581526020019081526020015f205f9054906101000a900460ff166109a3576040517f08c379a000000000000000000000000000000000000000000000000000000000815260040161099a90612e43565b60405180910390fd5b6109ac84611747565b837f1f25c8f84b6c233eb149c3fb4c0498e81bed4962833fff7dbe554af708365f1584846040516109de929190612e8d565b60405180910390a250505050565b5f5f6109f661151c565b9050805f015f8581526020019081526020015f205f015f8473ffffffffffffffffffffffffffffffffffffffff1673ffffffffffffffffffffffffffffffffffffffff1681526020019081526020015f205f9054906101000a900460ff1691505092915050565b60605f610a686111f2565b9050806001018054610a7990612d94565b80601f0160208091040260200160405190810160405280929190818152602001828054610aa590612d94565b8015610af05780601f10610ac757610100808354040283529160200191610af0565b820191905f5260205f20905b815481529060010190602001808311610ad357829003601f168201915b505050505091505090565b5f5f1b81565b610b13610b0c6112e6565b83836117c9565b5050565b5f5481565b7fd1ae8bbdabd60d63e418b84f5ad6f9cba90092c9816d7724d85f0d4e4bea2c6081565b7fea1e5b735e1f53c084cb4c6d36a3d1c10ad47b94665f4082bd36fa22ad75ec3a610b6a81611543565b600160025f8481526020019081526020015f205f6101000a81548160ff0219169083151502179055503373ffffffffffffffffffffffffffffffffffffffff16827f3d3c166cad90e269e67abdf4febbb4c114e543df80da2aa232cdada56823ca6160405160405180910390a35050565b610be684848461063e565b610bfa610bf16112e6565b85858585611940565b50505050565b5f610c09611aec565b90505f815f0160089054906101000a900460ff161590505f825f015f9054906101000a900467ffffffffffffffff1690505f5f8267ffffffffffffffff16148015610c515750825b90505f60018367ffffffffffffffff16148015610c8457505f3073ffffffffffffffffffffffffffffffffffffffff163b145b905081158015610c92575080155b15610cc9576040517ff92ee8a900000000000000000000000000000000000000000000000000000000815260040160405180910390fd5b6001855f015f6101000a81548167ffffffffffffffff021916908367ffffffffffffffff1602179055508315610d16576001855f0160086101000a81548160ff0219169083151502179055505b610d8a6040518060400160405280600a81526020017f426f65696e675f436f41000000000000000000000000000000000000000000008152506040518060400160405280600881526020017f4241432d43455254000000000000000000000000000000000000000000000000815250611aff565b610d92611b15565b610d9e5f5f1b87611557565b50426001819055508315610e00575f855f0160086101000a81548160ff0219169083151502179055507fc7f505b2f371ae2175ee4913f4499e1f2633a7b5936321eed1cdaeb6115181d26001604051610df79190612f04565b60405180910390a15b505050505050565b60605f610e13611b1f565b9050610e1e83611219565b505f815f015f8581526020019081526020015f208054610e3d90612d94565b80601f0160208091040260200160405190810160405280929190818152602001828054610e6990612d94565b8015610eb45780601f10610e8b57610100808354040283529160200191610eb4565b820191905f5260205f20905b815481529060010190602001808311610e9757829003601f168201915b505050505090505f610ec4611b46565b90505f815103610ed957819350505050610f1d565b5f82511115610f0e578082604051602001610ef5929190612f57565b6040516020818303038152906040529350505050610f1d565b610f1785611b5c565b93505050505b919050565b610f2b8261073d565b610f3481611543565b610f3e838361164f565b50505050565b7fd1ae8bbdabd60d63e418b84f5ad6f9cba90092c9816d7724d85f0d4e4bea2c60610f6e81611543565b610f7784611bc2565b15610fb7576040517f08c379a0000000000000000000000000000000000000000000000000000000008152600401610fae90612fea565b60405180910390fd5b5f8383905011610ffc576040517f08c379a0000000000000000000000000000000000000000000000000000000008152600401610ff390613052565b60405180910390fd5b6110063385611c4d565b6110538484848080601f0160208091040260200160405190810160405280939291908181526020018383808284375f81840152601f19601f82011690508083019250505050505050611d40565b5f5f8154809291906110649061309d565b9190505550833373ffffffffffffffffffffffffffffffffffffffff167f04271c30c6258e236aac1e7a9bd1bcad548b59aee4f2893292ca5d67b7747cdb85856040516110b2929190612e8d565b60405180910390a350505050565b5f5f6110ca6111f2565b9050806005015f8573ffffffffffffffffffffffffffffffffffffffff1673ffffffffffffffffffffffffffffffffffffffff1681526020019081526020015f205f8473ffffffffffffffffffffffffffffffffffffffff1673ffffffffffffffffffffffffffffffffffffffff1681526020019081526020015f205f9054906101000a900460ff1691505092915050565b6002602052805f5260405f205f915054906101000a900460ff1681565b5f7f7965db0b000000000000000000000000000000000000000000000000000000007bffffffffffffffffffffffffffffffffffffffffffffffffffffffff1916827bffffffffffffffffffffffffffffffffffffffffffffffffffffffff191614806111eb57506111ea82611dac565b5b9050919050565b5f7f80bb2b638cc20bc4d0a60d66940f3ab4a00c1d7b313497ca82fb0b4ab0079300905090565b5f5f61122483611e0c565b90505f73ffffffffffffffffffffffffffffffffffffffff168173ffffffffffffffffffffffffffffffffffffffff160361129657826040517f7e27328900000000000000000000000000000000000000000000000000000000815260040161128d9190612a42565b60405180910390fd5b80915050919050565b5f5f6112a96111f2565b9050806004015f8481526020019081526020015f205f9054906101000a900473ffffffffffffffffffffffffffffffffffffffff16915050919050565b5f33905090565b6112fa8383836001611e53565b505050565b5f5f6113096111f2565b90505f61131585611e0c565b90505f73ffffffffffffffffffffffffffffffffffffffff168473ffffffffffffffffffffffffffffffffffffffff161461135657611355818587612020565b5b5f73ffffffffffffffffffffffffffffffffffffffff168173ffffffffffffffffffffffffffffffffffffffff16146113e3576113955f865f5f611e53565b6001826003015f8373ffffffffffffffffffffffffffffffffffffffff1673ffffffffffffffffffffffffffffffffffffffff1681526020019081526020015f205f82825403925050819055505b5f73ffffffffffffffffffffffffffffffffffffffff168673ffffffffffffffffffffffffffffffffffffffff1614611464576001826003015f8873ffffffffffffffffffffffffffffffffffffffff1673ffffffffffffffffffffffffffffffffffffffff1681526020019081526020015f205f82825401925050819055505b85826002015f8781526020019081526020015f205f6101000a81548173ffffffffffffffffffffffffffffffffffffffff021916908373ffffffffffffffffffffffffffffffffffffffff160217905550848673ffffffffffffffffffffffffffffffffffffffff168273ffffffffffffffffffffffffffffffffffffffff167fddf252ad1be2c89b69c2b068fc378daa952ba7f163c4a11628f55a4df523b3ef60405160405180910390a480925050509392505050565b5f7f02dd7bc7dec4dceedda775e58dd541e08a116c6c53815c0bd028192f7b626800905090565b6115548161154f6112e6565b6120e3565b50565b5f5f61156161151c565b905061156d84846109ec565b611644576001815f015f8681526020019081526020015f205f015f8573ffffffffffffffffffffffffffffffffffffffff1673ffffffffffffffffffffffffffffffffffffffff1681526020019081526020015f205f6101000a81548160ff0219169083151502179055506115e06112e6565b73ffffffffffffffffffffffffffffffffffffffff168373ffffffffffffffffffffffffffffffffffffffff16857f2f8788117e7eff1d82e926ec794901d17c78024a50270940304540a733656f0d60405160405180910390a46001915050611649565b5f9150505b92915050565b5f5f61165961151c565b905061166584846109ec565b1561173c575f815f015f8681526020019081526020015f205f015f8573ffffffffffffffffffffffffffffffffffffffff1673ffffffffffffffffffffffffffffffffffffffff1681526020019081526020015f205f6101000a81548160ff0219169083151502179055506116d86112e6565b73ffffffffffffffffffffffffffffffffffffffff168373ffffffffffffffffffffffffffffffffffffffff16857ff6391f5c32d9c69d2a47ea670b442974b53935d1edc7fd64eb21e047a839171b60405160405180910390a46001915050611741565b5f9150505b92915050565b5f6117535f835f6112ff565b90505f73ffffffffffffffffffffffffffffffffffffffff168173ffffffffffffffffffffffffffffffffffffffff16036117c557816040517f7e2732890000000000000000000000000000000000000000000000000000000081526004016117bc9190612a42565b60405180910390fd5b5050565b5f6117d26111f2565b90505f73ffffffffffffffffffffffffffffffffffffffff168373ffffffffffffffffffffffffffffffffffffffff160361184457826040517f5b08ba1800000000000000000000000000000000000000000000000000000000815260040161183b9190612873565b60405180910390fd5b81816005015f8673ffffffffffffffffffffffffffffffffffffffff1673ffffffffffffffffffffffffffffffffffffffff1681526020019081526020015f205f8573ffffffffffffffffffffffffffffffffffffffff1673ffffffffffffffffffffffffffffffffffffffff1681526020019081526020015f205f6101000a81548160ff0219169083151502179055508273ffffffffffffffffffffffffffffffffffffffff168473ffffffffffffffffffffffffffffffffffffffff167f17307eab39ab6107e8899845ad3d59bd9653f200f220920489ca2b5937696c3184604051611932919061272d565b60405180910390a350505050565b5f8373ffffffffffffffffffffffffffffffffffffffff163b1115611ae5578273ffffffffffffffffffffffffffffffffffffffff1663150b7a02868685856040518563ffffffff1660e01b815260040161199e9493929190613136565b6020604051808303815f875af19250505080156119d957506040513d601f19601f820116820180604052508101906119d69190613194565b60015b611a5a573d805f8114611a07576040519150601f19603f3d011682016040523d82523d5f602084013e611a0c565b606091505b505f815103611a5257836040517f64a0ae92000000000000000000000000000000000000000000000000000000008152600401611a499190612873565b60405180910390fd5b805181602001fd5b63150b7a0260e01b7bffffffffffffffffffffffffffffffffffffffffffffffffffffffff1916817bffffffffffffffffffffffffffffffffffffffffffffffffffffffff191614611ae357836040517f64a0ae92000000000000000000000000000000000000000000000000000000008152600401611ada9190612873565b60405180910390fd5b505b5050505050565b5f5f611af6612134565b90508091505090565b611b0761215d565b611b11828261219d565b5050565b611b1d61215d565b565b5f7f0542a41881ee128a365a727b282c86fa859579490b9bb45aab8503648c8e7900905090565b606060405180602001604052805f815250905090565b6060611b6782611219565b505f611b71611b46565b90505f815111611b8f5760405180602001604052805f815250611bba565b80611b99846121d8565b604051602001611baa929190612f57565b6040516020818303038152906040525b915050919050565b5f3073ffffffffffffffffffffffffffffffffffffffff16636352211e836040518263ffffffff1660e01b8152600401611bfc9190612a42565b602060405180830381865afa925050508015611c3657506040513d601f19601f82011682018060405250810190611c3391906131d3565b60015b611c42575f9050611c48565b50600190505b919050565b5f73ffffffffffffffffffffffffffffffffffffffff168273ffffffffffffffffffffffffffffffffffffffff1603611cbd575f6040517f64a0ae92000000000000000000000000000000000000000000000000000000008152600401611cb49190612873565b60405180910390fd5b5f611cc983835f6112ff565b90505f73ffffffffffffffffffffffffffffffffffffffff168173ffffffffffffffffffffffffffffffffffffffff1614611d3b575f6040517f73c6ac6e000000000000000000000000000000000000000000000000000000008152600401611d329190612873565b60405180910390fd5b505050565b60025f8381526020019081526020015f205f9054906101000a900460ff1615611d9e576040517f08c379a0000000000000000000000000000000000000000000000000000000008152600401611d9590613248565b60405180910390fd5b611da882826122a2565b5050565b5f634906490660e01b7bffffffffffffffffffffffffffffffffffffffffffffffffffffffff1916827bffffffffffffffffffffffffffffffffffffffffffffffffffffffff19161480611e055750611e0482612309565b5b9050919050565b5f5f611e166111f2565b9050806002015f8481526020019081526020015f205f9054906101000a900473ffffffffffffffffffffffffffffffffffffffff16915050919050565b5f611e5c6111f2565b90508180611e9657505f73ffffffffffffffffffffffffffffffffffffffff168373ffffffffffffffffffffffffffffffffffffffff1614155b15611fc8575f611ea585611219565b90505f73ffffffffffffffffffffffffffffffffffffffff168473ffffffffffffffffffffffffffffffffffffffff1614158015611f0f57508373ffffffffffffffffffffffffffffffffffffffff168173ffffffffffffffffffffffffffffffffffffffff1614155b8015611f225750611f2081856110c0565b155b15611f6457836040517fa9fbf51f000000000000000000000000000000000000000000000000000000008152600401611f5b9190612873565b60405180910390fd5b8215611fc657848673ffffffffffffffffffffffffffffffffffffffff168273ffffffffffffffffffffffffffffffffffffffff167f8c5be1e5ebec7d5bd14f71427d1e84f3dd0314c0f7b2291e5b200ac8c7c3b92560405160405180910390a45b505b84816004015f8681526020019081526020015f205f6101000a81548173ffffffffffffffffffffffffffffffffffffffff021916908373ffffffffffffffffffffffffffffffffffffffff1602179055505050505050565b61202b8383836123ea565b6120de575f73ffffffffffffffffffffffffffffffffffffffff168373ffffffffffffffffffffffffffffffffffffffff160361209f57806040517f7e2732890000000000000000000000000000000000000000000000000000000081526004016120969190612a42565b60405180910390fd5b81816040517f177e802f0000000000000000000000000000000000000000000000000000000081526004016120d5929190613266565b60405180910390fd5b505050565b6120ed82826109ec565b6121305780826040517fe2517d3f00000000000000000000000000000000000000000000000000000000815260040161212792919061328d565b60405180910390fd5b5050565b5f7ff0c57e16840df040f15088dc2f81fe391c3923bec73e23a9662efc9c229c6a005f1b905090565b6121656124aa565b61219b576040517fd7e6bcf800000000000000000000000000000000000000000000000000000000815260040160405180910390fd5b565b6121a561215d565b5f6121ae6111f2565b905082815f0190816121c0919061344b565b50818160010190816121d2919061344b565b50505050565b60605f60016121e6846124c8565b0190505f8167ffffffffffffffff81111561220457612203612b85565b5b6040519080825280601f01601f1916602001820160405280156122365781602001600182028036833780820191505090505b5090505f82602001820190505b600115612297578080600190039150507f3031323334353637383961626364656600000000000000000000000000000000600a86061a8153600a858161228c5761228b61351a565b5b0494505f8503612243575b819350505050919050565b5f6122ab611b1f565b905081815f015f8581526020019081526020015f2090816122cc919061344b565b507ff8e1a15aba9398e019f0b49df1a4fde98ee17ae345cb5f6b5e2c27f5033e8ce7836040516122fc9190612a42565b60405180910390a1505050565b5f7f80ac58cd000000000000000000000000000000000000000000000000000000007bffffffffffffffffffffffffffffffffffffffffffffffffffffffff1916827bffffffffffffffffffffffffffffffffffffffffffffffffffffffff191614806123d357507f5b5e139f000000000000000000000000000000000000000000000000000000007bffffffffffffffffffffffffffffffffffffffffffffffffffffffff1916827bffffffffffffffffffffffffffffffffffffffffffffffffffffffff1916145b806123e357506123e282612619565b5b9050919050565b5f5f73ffffffffffffffffffffffffffffffffffffffff168373ffffffffffffffffffffffffffffffffffffffff16141580156124a157508273ffffffffffffffffffffffffffffffffffffffff168473ffffffffffffffffffffffffffffffffffffffff161480612462575061246184846110c0565b5b806124a057508273ffffffffffffffffffffffffffffffffffffffff166124888361129f565b73ffffffffffffffffffffffffffffffffffffffff16145b5b90509392505050565b5f6124b3611aec565b5f0160089054906101000a900460ff16905090565b5f5f5f90507a184f03e93ff9f4daa797ed6e38ed64bf6a1f0100000000000000008310612524577a184f03e93ff9f4daa797ed6e38ed64bf6a1f010000000000000000838161251a5761251961351a565b5b0492506040810190505b6d04ee2d6d415b85acef81000000008310612561576d04ee2d6d415b85acef810000000083816125575761255661351a565b5b0492506020810190505b662386f26fc10000831061259057662386f26fc1000083816125865761258561351a565b5b0492506010810190505b6305f5e10083106125b9576305f5e10083816125af576125ae61351a565b5b0492506008810190505b61271083106125de5761271083816125d4576125d361351a565b5b0492506004810190505b6064831061260157606483816125f7576125f661351a565b5b0492506002810190505b600a8310612610576001810190505b80915050919050565b5f7f01ffc9a7000000000000000000000000000000000000000000000000000000007bffffffffffffffffffffffffffffffffffffffffffffffffffffffff1916827bffffffffffffffffffffffffffffffffffffffffffffffffffffffff1916149050919050565b5f604051905090565b5f5ffd5b5f5ffd5b5f7fffffffff0000000000000000000000000000000000000000000000000000000082169050919050565b6126c781612693565b81146126d1575f5ffd5b50565b5f813590506126e2816126be565b92915050565b5f602082840312156126fd576126fc61268b565b5b5f61270a848285016126d4565b91505092915050565b5f8115159050919050565b61272781612713565b82525050565b5f6020820190506127405f83018461271e565b92915050565b5f81519050919050565b5f82825260208201905092915050565b8281835e5f83830152505050565b5f601f19601f8301169050919050565b5f61278882612746565b6127928185612750565b93506127a2818560208601612760565b6127ab8161276e565b840191505092915050565b5f6020820190508181035f8301526127ce818461277e565b905092915050565b5f819050919050565b6127e8816127d6565b81146127f2575f5ffd5b50565b5f81359050612803816127df565b92915050565b5f6020828403121561281e5761281d61268b565b5b5f61282b848285016127f5565b91505092915050565b5f73ffffffffffffffffffffffffffffffffffffffff82169050919050565b5f61285d82612834565b9050919050565b61286d81612853565b82525050565b5f6020820190506128865f830184612864565b92915050565b61289581612853565b811461289f575f5ffd5b50565b5f813590506128b08161288c565b92915050565b5f5f604083850312156128cc576128cb61268b565b5b5f6128d9858286016128a2565b92505060206128ea858286016127f5565b9150509250929050565b5f5f5f6060848603121561290b5761290a61268b565b5b5f612918868287016128a2565b9350506020612929868287016128a2565b925050604061293a868287016127f5565b9150509250925092565b5f819050919050565b61295681612944565b8114612960575f5ffd5b50565b5f813590506129718161294d565b92915050565b5f6020828403121561298c5761298b61268b565b5b5f61299984828501612963565b91505092915050565b6129ab81612944565b82525050565b5f6020820190506129c45f8301846129a2565b92915050565b5f5f604083850312156129e0576129df61268b565b5b5f6129ed85828601612963565b92505060206129fe858286016128a2565b9150509250929050565b5f60208284031215612a1d57612a1c61268b565b5b5f612a2a848285016128a2565b91505092915050565b612a3c816127d6565b82525050565b5f602082019050612a555f830184612a33565b92915050565b5f5ffd5b5f5ffd5b5f5ffd5b5f5f83601f840112612a7c57612a7b612a5b565b5b8235905067ffffffffffffffff811115612a9957612a98612a5f565b5b602083019150836001820283011115612ab557612ab4612a63565b5b9250929050565b5f5f5f60408486031215612ad357612ad261268b565b5b5f612ae0868287016127f5565b935050602084013567ffffffffffffffff811115612b0157612b0061268f565b5b612b0d86828701612a67565b92509250509250925092565b612b2281612713565b8114612b2c575f5ffd5b50565b5f81359050612b3d81612b19565b92915050565b5f5f60408385031215612b5957612b5861268b565b5b5f612b66858286016128a2565b9250506020612b7785828601612b2f565b9150509250929050565b5f5ffd5b7f4e487b71000000000000000000000000000000000000000000000000000000005f52604160045260245ffd5b612bbb8261276e565b810181811067ffffffffffffffff82111715612bda57612bd9612b85565b5b80604052505050565b5f612bec612682565b9050612bf88282612bb2565b919050565b5f67ffffffffffffffff821115612c1757612c16612b85565b5b612c208261276e565b9050602081019050919050565b828183375f83830152505050565b5f612c4d612c4884612bfd565b612be3565b905082815260208101848484011115612c6957612c68612b81565b5b612c74848285612c2d565b509392505050565b5f82601f830112612c9057612c8f612a5b565b5b8135612ca0848260208601612c3b565b91505092915050565b5f5f5f5f60808587031215612cc157612cc061268b565b5b5f612cce878288016128a2565b9450506020612cdf878288016128a2565b9350506040612cf0878288016127f5565b925050606085013567ffffffffffffffff811115612d1157612d1061268f565b5b612d1d87828801612c7c565b91505092959194509250565b5f5f60408385031215612d3f57612d3e61268b565b5b5f612d4c858286016128a2565b9250506020612d5d858286016128a2565b9150509250929050565b7f4e487b71000000000000000000000000000000000000000000000000000000005f52602260045260245ffd5b5f6002820490506001821680612dab57607f821691505b602082108103612dbe57612dbd612d67565b5b50919050565b5f606082019050612dd75f830186612864565b612de46020830185612a33565b612df16040830184612864565b949350505050565b7f4f6e6c79206c6f636b656420436f41732063616e206265207265766f6b6564005f82015250565b5f612e2d601f83612750565b9150612e3882612df9565b602082019050919050565b5f6020820190508181035f830152612e5a81612e21565b9050919050565b5f612e6c8385612750565b9350612e79838584612c2d565b612e828361276e565b840190509392505050565b5f6020820190508181035f830152612ea6818486612e61565b90509392505050565b5f819050919050565b5f67ffffffffffffffff82169050919050565b5f819050919050565b5f612eee612ee9612ee484612eaf565b612ecb565b612eb8565b9050919050565b612efe81612ed4565b82525050565b5f602082019050612f175f830184612ef5565b92915050565b5f81905092915050565b5f612f3182612746565b612f3b8185612f1d565b9350612f4b818560208601612760565b80840191505092915050565b5f612f628285612f27565b9150612f6e8284612f27565b91508190509392505050565b7f436f4120616c72656164792065786973747320666f72207468697320736869705f8201527f6d656e7400000000000000000000000000000000000000000000000000000000602082015250565b5f612fd4602483612750565b9150612fdf82612f7a565b604082019050919050565b5f6020820190508181035f83015261300181612fc8565b9050919050565b7f456d707479206d65746164617461206e6f74207065726d6974746564000000005f82015250565b5f61303c601c83612750565b915061304782613008565b602082019050919050565b5f6020820190508181035f83015261306981613030565b9050919050565b7f4e487b71000000000000000000000000000000000000000000000000000000005f52601160045260245ffd5b5f6130a7826127d6565b91507fffffffffffffffffffffffffffffffffffffffffffffffffffffffffffffffff82036130d9576130d8613070565b5b600182019050919050565b5f81519050919050565b5f82825260208201905092915050565b5f613108826130e4565b61311281856130ee565b9350613122818560208601612760565b61312b8161276e565b840191505092915050565b5f6080820190506131495f830187612864565b6131566020830186612864565b6131636040830185612a33565b818103606083015261317581846130fe565b905095945050505050565b5f8151905061318e816126be565b92915050565b5f602082840312156131a9576131a861268b565b5b5f6131b684828501613180565b91505092915050565b5f815190506131cd8161288c565b92915050565b5f602082840312156131e8576131e761268b565b5b5f6131f5848285016131bf565b91505092915050565b7f5552492066726f7a656e20706f73742d514120617070726f76616c00000000005f82015250565b5f613232601b83612750565b915061323d826131fe565b602082019050919050565b5f6020820190508181035f83015261325f81613226565b9050919050565b5f6040820190506132795f830185612864565b6132866020830184612a33565b9392505050565b5f6040820190506132a05f830185612864565b6132ad60208301846129a2565b9392505050565b5f819050815f5260205f209050919050565b5f6020601f8301049050919050565b5f82821b905092915050565b5f600883026133107fffffffffffffffffffffffffffffffffffffffffffffffffffffffffffffffff826132d5565b61331a86836132d5565b95508019841693508086168417925050509392505050565b5f61334c613347613342846127d6565b612ecb565b6127d6565b9050919050565b5f819050919050565b61336583613332565b61337961337182613353565b8484546132e1565b825550505050565b5f5f905090565b613390613381565b61339b81848461335c565b505050565b5b818110156133be576133b35f82613388565b6001810190506133a1565b5050565b601f821115613403576133d4816132b4565b6133dd846132c6565b810160208510156133ec578190505b6134006133f8856132c6565b8301826133a0565b50505b505050565b5f82821c905092915050565b5f6134235f1984600802613408565b1980831691505092915050565b5f61343b8383613414565b9150826002028217905092915050565b61345482612746565b67ffffffffffffffff81111561346d5761346c612b85565b5b6134778254612d94565b6134828282856133c2565b5f60209050601f8311600181146134b3575f84156134a1578287015190505b6134ab8582613430565b865550613512565b601f1984166134c1866132b4565b5f5b828110156134e8578489015182556001820191506020850194506020810190506134c3565b868310156135055784890151613501601f891682613414565b8355505b6001600288020188555050505b505050505050565b7f4e487b71000000000000000000000000000000000000000000000000000000005f52601260045260245ffdfea2646970667358221220568b4cf0b6dbf172c4af1aa17ea8dcbcdbcee49d2bb98d3ae7fa9e8f04381dab64736f6c634300081e0033","linkReferences":{}},"methodIdentifiers":{"DEFAULT_ADMIN_ROLE()":"a217fddf","QA_ROLE()":"52671bb1","SUPPLIER_ROLE()":"a29508fc","approve(address,uint256)":"095ea7b3","balanceOf(address)":"70a08231","getApproved(uint256)":"081812fc","getRoleAdmin(bytes32)":"248a9ca3","grantRole(bytes32,address)":"2f2ff15d","hasRole(bytes32,address)":"91d14854","initialize(address)":"c4d66de8","isApprovedForAll(address,address)":"e985e9c5","isLocked(uint256)":"f6aacfb1","lockURI(uint256)":"b0525abf","name()":"06fdde03","ownerOf(uint256)":"6352211e","renounceRole(bytes32,address)":"36568abe","revokeCoA(uint256,string)":"8a0ab9be","revokeRole(bytes32,address)":"d547741f","safeTransferFrom(address,address,uint256)":"42842e0e","safeTransferFrom(address,address,uint256,bytes)":"b88d4fde","setApprovalForAll(address,bool)":"a22cb465","submitCoA(uint256,string)":"dafa018b","supportsInterface(bytes4)":"01ffc9a7","symbol()":"95d89b41","tokenURI(uint256)":"c87b56dd","totalShipments()":"a283c49d","transferFrom(address,address,uint256)":"23b872dd"},"id":43}